:1000000000000120793200007532000075320000D6
:100010007532000075320000753200007532000044
:100020007532000075320000753200007532000034
:100030007532000075320000753200007532000024
:1000400075320000C578000075320000753200007E
:100050007973000031790000D1780000E978000060
:10006000C97800007532000075320000753200005A
:1000700075320000753200007532000075320000E4
:1000800075320000753200007532000075320000D4
:1000900075320000753200007532000075320000C4
:1000A00075320000753200007532000075320000B4
:1000B00035790000CD7800001D6000007532000029
:1000C0007579000075320000493900007532000072
:1000D0007532000075320000753200007532000084
:1000E0007532000075320000753200007532000074
:1000F00075320000753200007532000010B5054CF5
:10010000237833B9044B13B10448AFF300800123C3
:10011000237010BDB000002000000000B8A2000055
:1001200008B5034B1BB103490348AFF3008008BD7A
:1001300000000000B4000020B8A20000154B002B06
:1001400008BF134B9D46A3F5803A00218B460F460E
:100150001348144A121A08F0F6F90F4B002B00D07E
:1001600098470E4B002B00D0984700200021040038
:100170000D000D48002802D00C48AFF3008008F0B5
:10018000B3F92000290002F033FA08F099F900BF12
:100190000000080000000120000000000000000036
:1001A000B00000200C1C0020000000000000000037
:1001B00037B50446684680E8060003C8251D85E873
:1001C00005002373069B2361BDF81C30A382002326
:1001D0002360084B1A6812B91C6004E00A461168D3
:1001E0000029FBD114609888013080B2988003B058
:1001F00030BD00BFC806002007B503790193054A4A
:100200000368009306CA02230830FFF7D1FF03B04A
:100210005DF804FBD08700000A4B40F2011210B5D4
:100220001A604FF0FF329A6001225A6008441A4661
:10023000814202D1D869C04310BD11F8014B9461CD
:10024000F6E700BF00C0014070B5134C2268A2F170
:100250007E63A3F58433B3F5605FE0B005460E46D8
:1002600017D2126BA2F17E63A3F58433B3F5605FFE
:100270000FD2536A69464FF4C0720020984730B9D4
:1002800023681B6B3246DB6A29466846984760B094
:1002900070BD4FF40170FAE72808E10F0F4A10B45F
:1002A0001468A4F17E62A2F58432B2F5605F0B4659
:1002B0000FD2246BA4F17E62A2F58432B2F5605FA6
:1002C00007D22469064A0146A44600205DF8044B83
:1002D00060474FF481705DF8044B70472808E10FC8
:1002E0001807002070B51C4D2A68A2F17E63A3F5A3
:1002F0008433B3F5605FE0B004D34FF4017420465B
:1003000060B070BD136B002BF7D05B6A4FF4C07206
:1003100069460020984704460028F0D140F20126A3
:100320002A68A2F17E63A3F58433B3F5605FE4D25B
:10033000126BA2F17E63A3F58433B3F5605FDCD268
:10034000936A002168469847B042E9D040F20323FF
:10035000984218BF0446D2E72808E10F154B02283F
:10036000D3F8803113D0032814D0012814BFDBB296
:10037000C3F307231B0323F47042B1B9BAB90E4982
:10038000CA6E22F470421343CB6601207047C3F358
:100390000743EFE71B0EEDE70749D1F8E02022F411
:1003A00070421343C1F8E030EFE7002AF4D0002098
:1003B000704700BFB081E00F00300E40304B1A6F25
:1003C000D96CC90702F0070242D5012A40D9132887
:1003D00051D9143813288CBF102308232849013B16
:1003E000CA6C180322F47F4240EA03231343CB6410
:1003F000244BCA6C1B88C2F303222833013202EB60
:10040000820003EB5303B3FBF0F3C86C013B072BF3
:1004100020F0EE6028BF072340F4801040EA036319
:10042000CB64194BB3F90030002B10DB2833500894
:1004300000EB420203EB5303B3FBF2F30A6D072B0D
:1004400028BF072322F0700242EA03130B657047AE
:10045000DB6CD90706D4012A04D809280BD90A383D
:100460000928B8E7064BDB6C13F00103B6D0012A6C
:1004700003D82728AFE70423B0E70023AEE700BF87
:1004800000300E40E6060020E806002042EA032382
:1004900040F2011293422BD0B3F5817F08D2012B99
:1004A0001DD030D3B3F5807F31D0002213461CE03D
:1004B00040F20122934222D006D8B3F5007FF4D156
:1004C000174BD3F870310DE0B3F5407F23D040F2E5
:1004D00001329342E9D1124BD3F878310BE0104B43
:1004E000D3F87431C3F30722DBB203600A607047AC
:1004F0000B4BD3F874311A0EC3F30743F5E7084BDF
:10050000D3F87831EEE7064BD3F86C31EAE7044BC9
:10051000D3F86C31EFE7024BD3F87031EBE700BF53
:10052000B081E00F044A1368002BFCD1034B5868DC
:10053000C0F30140704700BFC800C64300300E4002
:100540000E4B30B50E4C5B68C9B2002304EBC302FE
:1005500015798D4203D154F8335085420BD20133C3
:10056000052BF3D1032205494B6823F0407343EA7E
:1005700002634B6030BD5279F5E700BF00000E40CA
:10058000DC86000038B5054C41F67133256C2364D8
:10059000FFF7D6FF0DB10023236438BD00000E40E5
:1005A0000C4B984210D90C4B984210D902220123CF
:1005B0000A490B600A49D1F8003123F0807343EAFD
:1005C0000263C1F80031704700221346F0E70122B0
:1005D000FBE700BF0048E8010090D0034000C8439B
:1005E00000400E40094B30B5196C5C6C002223466C
:1005F00042EA0104220C82701A0A210AC2701A0C03
:100600001B0E047041700271437130BDB081E00F68
:10061000214BD3F8F82102401CD170B4D3F8FC511F
:10062000D3F8006203F5FC74641BA410022C12D0F2
:10063000032C29D0012C1AD0184A52682A6005F1DF
:100640000C026860C3F8FC21A96033680C33336086
:1006500070BC70477047114A1C1D52682A60686060
:1006600004221960C3F8FC41326070BC70470B4C27
:100670001A4664682C6042F8080B08205960C3F8D9
:10068000FC21306070BC7047044C6468A960C5E907
:100690000040C3F8FC31E7E79C150020001000E0A3
:1006A000837DDB0701D5808A7047D0E901239B1A3F
:1006B00044BF828A9B1898B270470000044B5A6D61
:1006C00022B95865A3F858100120704700207047E0
:1006D00068060020D0B50C4CE38C0A20584307F084
:1006E00053FC0646A08C0F4607F04EFC0022074B39
:1006F00007F0B4FC02460B463046394607F0D8FDF9
:1007000007F0BEFE2083D0BD680600200000F43F45
:10071000084A10B5146840F2E243584303FB014114
:10072000536800F5807001EB50011844116050606F
:1007300010BD00BF6806002070B500228AB01346C5
:10074000D91003F00704415C2141CC0741BF0AA93D
:100750008918013201F8283C0133252BF0D10E4DC8
:100760000023D91003F00704415C2141C90707D5D4
:10077000E91881F82A300133252BF2D10AB070BD77
:100780000AAE93FBF2F102FB11313144EC1811F87F
:10079000286C84F82A60EEE768060020024B986C0B
:1007A00080B28002704700BFB081E00F7FB50E4B72
:1007B00002466D4603F11006186859682C4603C4BA
:1007C0000833B3422546F7D1531E04A90F3211F85E
:1007D000014D13F8010F844204D19342F7D1012057
:1007E00004B070BD0020FBE7C085000070B51A4D55
:1007F000286810BB194B1A4CE41A1A4B1C4424F4F9
:10080000FF6424F00704FFF7C9FF844214D2666B2B
:10081000A6B1FFF7C3FF864210D2FFF7BFFF06F174
:10082000400383420AD83046FFF7C0FF30B1F36976
:1008300033F0080302D02C60286870BD04F1FC0678
:100840003046FFF7B3FF20B1D4F8183133F0080376
:10085000F1D104F50064D6E72C010020100000203F
:10086000B000002003AB0000BFF34F8F0549064BDB
:10087000CA6802F4E0621343CB60BFF34F8F00BF3E
:10088000FDE700BF00ED00E00400FA050A4B1A681E
:10089000A2F17E63A3F58433B3F5605F09D2126BD6
:1008A000A2F17E63A3F58433B3F5605F01D2D36B0D
:1008B000184740F2011070472808E10F0D4B10B4A3
:1008C0001C68A4F17E63A3F58433B3F5605F0BD29B
:1008D000246BA4F17E63A3F58433B3F5605F03D288
:1008E000A36B5DF8044B184740F201105DF8044B10
:1008F000704700BF2808E10F064B1A68A2F17E631B
:10090000A3F58433B3F5605F01D2536A1847002022
:10091000704700BF2808E10F114B196801F17043BF
:1009200003F5F813B3F5006F0CD20E4B1B68A3F15F
:100930007E62A2F58432B2F5605F03D209680A4A8A
:10094000914203D000230370836070471968074AFF
:100950009142F7D1012202709A6842609B69F3E7E5
:100960002800E10F2808E10FAD1007B007B0CD5EF9
:1009700010B50C4630B90448FFF7CEFF034B236097
:100980000423A380002010BD880100208C010020DA
:1009900010B508B3114B1A68918881421CD399880D
:1009A000814281BF0121126899809A6099889A6872
:1009B00000242AB904B19A604FF6FF71998009E0CA
:1009C000884204D00131126889B20124F1E70CB1E8
:1009D00098809A60104610BD0022FBE7D0060020E8
:1009E00037B50D461446FFF7D3FFD8B10369828AA5
:1009F00063B14FF6FE718A4208D100200090ADF835
:100A000004006946984738B103B030BD2B6022809E
:100A1000286848B92080F7E7009B2B60BDF80430B8
:100A20002380F5E70120EFE70020EDE737B50D461D
:100A30001446FFF7ADFF70B1036973B1818A4FF6B9
:100A4000FE72914209D10095ADF80440694601203B
:100A5000984703B030BD0120FBE70E20F9E7000006
:100A600037B50379124A03330446019300F1440376
:100A7000009306CA02231430FFF79AFB228A0192E0
:100A8000E268237A009204F12C0094E80600FFF754
:100A90008FFB237AA4F84500054684F84430227978
:100AA000216804F1470007F043FD284603B030BD3C
:100AB000C887000070B50E4C0E4B04F110020646BC
:100AC0000D4692E80300183483E803001846FFF748
:100AD00093FB094B94E8030002221A7283E8030097
:100AE000DE601D821846BDE87040FFF7B9BF00BF49
:100AF000C085000034150020B00400202DE9F0412D
:100B0000054616468846FFF7CBFDAB8A181A80B219
:100B1000864228BF064637465FB93EB1D5E9013265
:100B20009A4202BFAB7D43F00103AB753046BDE88E
:100B3000F081AB8A2C68A8681C44241AA3B2BB427B
:100B40008CBF3C46A4B22246414607F0F1FCAB689C
:100B50002968AA8A23440A44A0449342A7EB0404C8
:100B6000AB60A7B228BFA960D6E770B504461546AA
:100B70001E4611B3FFF794FDA38A181A80B201280C
:100B800029D9E37D63B1E368628A1A70120A07D03B
:100B90002068A18A013301448B4228BF0346F4E751
:100BA00000236382A368E360022204F1120120465D
:100BB000FFF7A4FFE37D0133E37532462946204663
:100BC000FFF79CFF638A03446382E37D13B9238AA2
:100BD0000344238270BD0020FCE72DE9F041164656
:100BE00005468846FFF75CFD864228BF0646B6B23A
:100BF00037464FB92EB1AB7DDA0744BF23F001036E
:100C0000AB753046BDE8F081AB8A2C6869681C443E
:100C1000641AA3B2BB428CBF3C46A4B222464046F3
:100C200007F086FC6B682968AA8A23440A44A0441A
:100C30009342A7EB04046B60A7B228BF6960D8E7B2
:100C400070B51E46038A04461546EBB9C27DDAB17B
:100C50000123013A0B70C27500F110010222FFF767
:100C6000BCFFE37D9BB1228AB24228BF32462946AF
:100C70002046FFF7B2FF238A1B1A2382E37D13B9B4
:100C8000638A1B1A638270BD00230B70EBE7638AD3
:100C90002382E8E770B50E46B0B9FFF7A7FD04461A
:100CA000FFF7A4FD60B1094D04F1FC0304F59E7447
:100CB000186859682A4603C20833A3421546F7D17B
:100CC000034B33600423B380002070BD300100204B
:100CD000500100202DE9F04385B08846694604465E
:100CE00081E80C000C9EBDF83470FFF751FE4FF602
:100CF000FE7905460DB1444505D94FF6FF742046EF
:100D000005B0BDE8F0832B7A9DF804209A421ED1ED
:100D10000099686807F01FFCC8B9002EEFD02B6956
:100D2000AA8AA3B14A4509D10290ADF80C0002A9E4
:100D3000984760B9029BBDF80C2043B1974206D199
:100D40003A461946304607F006FC0028D7D0013451
:100D50002D68A4B2CEE70000F0B5354C85B0114641
:100D60004FF486701F461646FFF752FC236925464E
:100D70002BB94FF48370FFF74BFC05B0F0BD002F8B
:100D800008BF082E21D16A460221206802F02CFDFE
:100D9000636860615B7A23769DF80030DA1F534206
:100DA0005341627E63F30002029BE361BDF80230AF
:100DB0006276638304F118012369022098470122B7
:100DC0000021206802F018FDD7E7002F08BFB6F514
:100DD000801F03D1002101209847CEE706F4C052BE
:100DE0000023134309D04FF480714FF48170FFF753
:100DF0000FFC236900210320EEE706F44072002374
:100E0000134308D001214FF48170FFF701FC2B69D7
:100E10000021FF20E0E706F0A0620023134319BF82
:100E2000012140F2011031464FF48370EDE700BF1D
:100E3000A81300207FB502238DF80C30064B5A8B87
:100E4000596918680332029201AA02F0D1FC019894
:100E500007B05DF804FB00BFA813002008B500210F
:100E60004FF48570FFF7D4FB044B00221A61186819
:100E700001220321BDE8084002F09ABAA81300201D
:100E800013B50D4B0D4C1B88ADF804300128ADF89F
:100E9000003004BF02238DF8043001A908BF0423E9
:100EA000206808BF8DF8003002F010FC6946206809
:100EB00002F02CFC02B010BDE0850000A813002059
:100EC00037B5124C437A606000220092D0E90021CD
:100ED000206802F026FD238CDB050CD563680C4DE1
:100EE0001A7A2978914206D0012A06D0022A08D01F
:100EF00063681B7A2B7003B030BD206802F0CCFC15
:100F0000F6E7206802F0E0FCF2E700BFA81300203B
:100F1000C50600207FB51A4C1948637A0133DBB24D
:100F2000272B88BF25236372FFF7CAFF257BA27B8F
:100F3000144C154920684FF40073023202F034FC5F
:100F40006368124A5B7A05F001052846D65CFFF714
:100F500097FF42F2107300220293009201238DF852
:100F60000C30314602AB206802F026FA28B1FFF7B8
:100F700075FFFFF7CFFF04B070BD054B2361FAE7A3
:100F8000CC000020A8130020D90000209C8700007E
:100F90009517000038B50D4611462C68A41A224654
:100FA000014407F0E7FA2C6038BD00002DE9F04756
:100FB000DFF86C814F4CD8F800304F4EC51A4F48BF
:100FC0003560241A4E48044424F4FF6424F00704D6
:100FD000A542C14670D313445F19FFF7DFFBA0F5AC
:100FE0008050874268D2D8F800008418B4F5806F2A
:100FF00003D9444B82221A705CE0DFF82081424F13
:10100000404407F095FAD7F800A0C9F80040BAF1BB
:10101000000F1DD1B4F5867F4CD33C4A08F1FC0388
:1010200008F5867853F8041B42F8041B4345F9D1B0
:101030003648FFF7BBFB10B9324B8422DBE71022A6
:10104000FF21334807F07FFA324A05F1FC031360B1
:1010500004F0030830482C44A4EB08040440BAF11F
:10106000000F0AD12840C0F500612144FFF70EFCB3
:101070003C6048B1234B8522BDE7A24504D2A4EBD6
:101080000A010AF50060F1E7D9F800202349306829
:10109000A2EB0802FFF712FCD9F8002033682049C0
:1010A000A2EB0802044613441C483360FFF772FFAA
:1010B000002CDFD1BDE8F0871A4B5B68B3F1827F6B
:1010C000104B12D218780A4400268A4203D1002E0F
:1010D000F0D01870EEE711F8017BFF2FF5D0012654
:1010E000A54234BF87208320EFE7A54234BF872283
:1010F000832280E7B0000020200B00201000002099
:1011000003AB00001D0B0020A41300208C0F002057
:101110009C1000209C0F002000F8FFFFA00F002073
:10112000A013002094010020EFF3108072B67047E6
:101130000048704700F049020B4A536911699B004F
:1011400003F03C03C1F381110B438370136903F077
:101150003F0343709369D26903F0F003C2F30312B3
:1011600013430370704700BFD0FF0FE0054A064BE2
:101170001B68136F23F007031843044B106718888C
:10118000FFF71CB900300E408009C643E40600207A
:10119000EFF3108072B6704700B962B67047000076
:1011A00010B5034CA01DFFF7C7FA0023236010BD44
:1011B0006C0F002010B5094CB4F80710A079FFF7A8
:1011C000A7FAA368064AB4F80D10D184C3F30F231D
:1011D0009384FFF77FFA0023236010BD6C0F00207B
:1011E00068060020034B044A9979117500221A60A1
:1011F000704700BF6C0F002068060020FFF7CCBFCF
:101200002DE9F0410D4F06460D4614460CB9BDE8D8
:10121000F081EFF3108872B623462A4631463846ED
:10122000FFF7A3FC03464046FFF7B6FF002BEDD0C7
:10123000E41AA4B21D440026E8E700BF500E0020C7
:1012400013B5002301F10804ADF80430ADF8060031
:1012500021461A46083151F8100C70B90BB1ADF89F
:10126000042004220DEB020101200834FFF7C8FF1F
:1012700054F8101C39B902B010BD51F80C3C1A4496
:1012800092B20123E6E734F80C2C0020EDE70000D1
:101290007FB500230130CDE90101CDE90433694672
:1012A000044B009304200392FFF7CAFF07B05DF8D8
:1012B00004FB00BF760100200E4A1368A3F17E6391
:1012C000A3F58433B3F5605F10B50ED2EFF3108051
:1012D00072B6094900240B780C70FFF75DFF3BB133
:1012E0001368BDE810401B6A18474FF4817010BDA9
:1012F0001846FCE72808E10F690F002001282DE9B6
:10130000F34740F030818B88012B40F02E810B6831
:101310001B7813BB974A984C1360984A1360984AFD
:101320001360984A1360984A1360984A1370984A59
:101330001360984A13602278022A01D1FFF7BCFF9C
:1013400001232370944B00241C70944B1C70944B0D
:101350001C70204602B0BDE8F087032B40F0F080FF
:101360008F4B854E1C78002C4AD13378002B00F02F
:10137000DB80864B1B78082B7AD17E4A1368904617
:101380008BB9884D2B68A3F17E63A3F58433B3F545
:10139000605F50D34FF4017041F20803984200F0AF
:1013A000C58080242CE013F003071ABFC7F104079F
:1013B000FFB2274603EB070ABAF5806F00F2BA8046
:1013C00079483A461844FF2107F0BDF8704B6B4A44
:1013D000C8F800A015681A6815445544DFF8A8A19C
:1013E00025F4FF65DAF8000025F0070585429946E7
:1013F0000BD9291A00F50060FFF748FA18B18524C7
:1014000000233370A5E7CAF80050D8F80010D9F8C7
:101410000000FEF743FFD9F80030D8F80020554906
:1014200013440546DF1B6048C9F80070FFF7B2FDA2
:10143000002DA6D0E3E7FEF755FF0028ACD12A68BF
:101440000190A2F17E63A3F58433B3F5605F0BD204
:10145000126BA2F17E63A3F58433B3F5605F03D210
:101460009369012101A898474C4B01221A70C7E7E4
:10147000002B5DD0484B1B78002B92D0454F3B682A
:1014800043B9404B494918681022FFF717FA002862
:10149000B6D0B4E713F003021CBFC2F10402D2B20B
:1014A0009D18B5F5806F45D84148FF21184407F0D5
:1014B0004AF8404A404B324840493D609B1A404AF6
:1014C000134402680B409342804635D81544FFF719
:1014D00065F9A0F58050854230D23D68DFF8A890CC
:1014E0002A44D9F8000002EA0105854208D9291AE0
:1014F00000F50060FFF7CAF9002880D1C9F8005054
:101500003A682B49D8F80000FFF7D8F9D8F800302E
:101510003A682049054613442548C8F80030FFF7CB
:1015200039FD002DADD06AE7812469E7862467E79D
:10153000842465E7822463E7872461E783245FE7E7
:10154000042B14D11F4C13230221637020462170F9
:10155000FFF7B4F81C4A1D4B128905329A801C4AC9
:101560001A6062789A710024F3E60D24F1E60624ED
:10157000EFE600BF180B00201E0B00209415002082
:10158000200B00209C0F0020A413002070010020DD
:10159000240B0020A01300201C0B00207D01002044
:1015A0001D0B00202808E10F180700208C0F0020D9
:1015B000A00F002010000020B000002000F8FFFF66
:1015C00003AB0000800F0020680600206C0F002095
:1015D000911C00000E4A1368A3F17E63A3F58433C7
:1015E000B3F5605F10B50ED2EFF3108072B6094B01
:1015F000012419781C70FFF7CFFD39B91368BDE8D5
:101600001040DB6918474FF4817010BD0020FCE7E3
:101610002808E10F690F0020134A144C08B5937E87
:1016200043F040039376124B00221A70114B1B7843
:101630004FF000556BB1FFF7CDFF0F4B2B6001232F
:10164000A360236823F4E06343F480632360FFF71F
:101650000BF92B600123A360236823F4E06343F4B8
:1016600080632360FFF700F96806002000500E40F9
:10167000C40600207D01002002020FF010B5134CBB
:10168000A37E5B0621D4FFF7E9FB2168A38C40F21F
:10169000E24202FB0312226094F84F10A27A252046
:1016A0000A4492FBF0F100FB1122A272228901325E
:1016B000228162680A2101FB03236360238B5A1E87
:1016C000228313B90820FFF7A7FF10BD680600208A
:1016D0002DE9FF41294C40F601002189FEF798FFD2
:1016E000A37E13F0400242D143F0010303F0FD0357
:1016F00062F38203224AA376136823B12189928878
:10170000914200D19847A37A1E4E1F48234493F874
:101710002A306375FFF7D4FBD4E9005473681B4A81
:101720005B7A64082F1B12F803800120FFF7A8FBE7
:1017300064350097002725446A46012441463B460C
:10174000306802958DF804708DF80C708DF80D409E
:101750008DF80E4001F034FE2246054639463068C9
:1017600002F04AF835B1FFF789FFFFF7B1FF04B087
:10177000BDE8F081064B3361F9E700BF6806002041
:101780006C0F0020A8130020740600209C87000026
:10179000F918000002282DE9F0411FD002D80128D5
:1017A00007D0FEE7032800F09C80FF2800F0998016
:1017B000F7E74D4C237B980707D5FFF74FFBFFF763
:1017C000A9FB237B6FF341032373237B990701D488
:1017D000DA0764D4BDE8F041FFF79CBB4B784C6856
:1017E000DB077ED5227802F00F07032F59D0052F93
:1017F00077D13E498B7B03F00103B3EBD21F04F199
:1018000008004CD10622083106F0A5FE80460028CB
:1018100045D1FFF723FBFFF70DFB354D414606464B
:101820005C22284606F08FFEAB7E2F8343F0200318
:10183000AB76627E237E43EA0223AB84627F237F02
:1018400043EA0223EB8494F82330C3F3040385F8BE
:101850004F3094F82330C3F3421385F8503004F12D
:101860001E001B232B85FEF767FFD4F80E30E27CA9
:10187000EB60A37C2E6043EA0223227D607D43EA75
:1018800002432B61012795F84F30AB722F75E18A27
:101890003944FEF73DFFFFF71BFF164B1F70BDE8F5
:1018A000F081124DAB7B03F00103B3EBD21F04F1C7
:1018B0000800F4D1062205F1080106F04CFE0028CC
:1018C000EDD1094C286894F836204FF400730232A9
:1018D00004F1350101F068FF237B43F00203237319
:1018E000DDE7FFF7BBFA75E7CC000020A813002066
:1018F00068060020C406002002282DE9F7430F46A1
:101900000BD003D8012800F0B281FEE7032800F0D5
:10191000B681FF2800F0B381F7E748784E68BB4DE9
:1019200010F0010461D14FF0FF3140F60300FEF7E3
:101930006FFE2646AB7EB64C13F0200F12D0696DB9
:101940006FF34513AB76002900F09F80237895F85C
:101950005820627043F003032370A01C06F0E8FDDA
:1019600000236B65AB48DFF8D082FEF799FEAA7EB4
:101970002378003018BF012060F34102C2F3001148
:10198000AA7661F38203C2F3C00262F3C30360F379
:1019900004132370218840F60200FEF739FE6278B6
:1019A0009B49D8F8000002324FF40073D2B201F024
:1019B000FBFEAB7E7C68D90709D56FF30003AB76DD
:1019C00000236B60FFF736FA2860FEF783FE4EB106
:1019D000237803F00303022B00F031816DD8012B33
:1019E00000F02C8103B0BDE8F083318840F603009D
:1019F000FEF70EFE3378A97E96F80080C3F300133D
:101A000063F38201A976C8F3C003C1F300118B42CE
:101A100006D108F00303022B05D019D8012B31D0D1
:101A20000026344615E0A146767896B17A48848A35
:101A3000FEF736FE201A80B2B9F1000F04D002285A
:101A400086BF023880B2002086428CBF0024012469
:101A50002646AB7EC8F38008C3F3C002904507D08A
:101A600082F0010262F3C303DBB243F02003AB76E2
:101A7000002C3FF45FAFAB7E81F0010161F30413F2
:101A8000AB7657E74FF00009CEE795F8283061486C
:101A9000A21C0DF10701FFF7D3F8C0B258B19DF8B1
:101AA0000730002B0CBF012202222378607062F302
:101AB0000103237056E70122F7E7A378022B65D0D4
:101AC00011D8002B4DD0012B38D0544A127822B1B6
:101AD000162B7FD0182B00F08C8051480722027003
:101AE0004370022127E00C2B18D0142B56D0082B62
:101AF000EBD1B8F8201054F8035FC8B205EA000231
:101B0000474801F47F41044642EA0105092104F8EF
:101B1000011B0023C0F8015063600CE040484FF007
:101B2000FF3203700123437082700371022200238D
:101B3000C27043710621FEF7C1FD53E7617A237A33
:101B4000384A43EA012393801346374943F8061B7A
:101B500054F8031FC2F80610A2889A80A2799A71DD
:101B600040E7627B237B2F4943EA02238B800B46AD
:101B70002E4A43F8062B54F8032FC1F8062062685A
:101B80005A6022891A81A27A9A722BE72A89254BF8
:101B900005329A80264A1A60E278E0E7B4F8053008
:101BA000B4F803201E48DB08934228BF13462B8558
:101BB000152300216FF004046FF027020370072340
:101BC000817081714470C27003714471C27103727B
:101BD0000921B0E72279E3781148134003F00303A9
:101BE000022B18BF01231722027043708370032158
:101BF000A1E76279A1790B4B42EA01229A800D4A52
:101C00001A60D4F80320C3F80620EBE6680600202B
:101C1000A0170020500E0020380D0020680F002073
:101C2000800F00206C0F0020A1110000B5110000F2
:101C3000911C0000E5110000A813002000261248A6
:101C4000818AFEF72DFD081AA51C80B2647826B1A2
:101C5000022886BF023880B20020A3B283423FF63A
:101C6000C1AE2A4631460848FEF77FFFBAE6074B69
:101C70009B7E9A073FF5B6AE5B073FF5B3AEFFF725
:101C8000FDFCFFF725FDADE6380D002068060020BD
:101C900008B5024B9879FFF7BFFC00BF6C0F00201E
:101CA0002DE9F04F01288BB040F048818A88002A46
:101CB00000F04681A44D95F800B0BBF1000F00F094
:101CC0004181A24B1C7898465CB9A14806788246AF
:101CD0003EB9A04E30681718B7F5806F05D9822439
:101CE0001C7020460BB0BDE8F08FDFF888920968C1
:101CF000484406F01DFCBBF1020F37603DD0032FB6
:101D0000EFD9954F3846FEF707FE3B78D9F800200B
:101D1000012B924B62D19A4262D1BB68DB0368D53A
:101D200002232B70FFF756FC8D4B1A68A2F17E63DD
:101D3000A3F58433B3F5605F0BD2126BA2F17E631F
:101D4000A3F58433B3F5605F03D2936803A9002041
:101D500098470398834B844A186020F4FF6323F06C
:101D600007034FF400611360FEF790FD88BBFEF798
:101D70003DFD40BB2B78022BB3D17C497C4F0878CA
:101D80003A68336810F0F70F894640F0AC80754927
:101D90000D681D4403F0030B1544734B0193A5EB31
:101DA0000B0525F4FF65186825F00705854223D942
:101DB000291A00F50060FEF769FD019BD8B1852462
:101DC00088F800408DE74FF40061FEF75FFD0028C2
:101DD000D0D0852388F800301C4682E79A4208D08C
:101DE000842388F8003098F80030002B3FF479AF56
:101DF000F0E78623F5E71D6031683868A1EB0B0139
:101E0000FEF74CFA32683B685249A2EB0B020546DA
:101E1000134458483B60FFF7BDF8002DCFD199F827
:101E20000030002B7FF45DAF3B687F2B7FF759AF0D
:101E300002A903A8FEF708FA10B9039B89F800303D
:101E400099F8003013F0F70F3FF44BAF444D3B6867
:101E50002968A1F17E62A2F58432B2F5605FAED24C
:101E6000096BA1F17E62A2F58432B2F5605FA6D261
:101E7000D1F80C903F4A00210846C84700289ED15F
:101E80003B683360384B3C4F18603C4B7B602A68A2
:101E9000A2F17E63A3F58433B3F5605F8FD2936ABA
:101EA00037484FF400719847002888D12968336873
:101EB000A1F17E62A2F58432B2F5605F3BD2CD6AB9
:101EC0002C4A2F483946A8470546326821492948F7
:101ED000FFF760F840F203239D421ED040F2012339
:101EE0009D4226D1FDE61A443A601D4A1168A1F1CF
:101EF0007E62A2F58432B2F5605F12D2CD6A1D4ACD
:101F00001D491F48A8470546326812491948FFF77E
:101F100041F840F203239D4206D101238AF80030A4
:101F2000DFE640F20225EFE740F201239D423FF455
:101F300076AF802444E740F20225C6E70024D0E6CD
:101F40000D24CEE68124CCE61E0B00201D0B0020C4
:101F50001C0B0020180B002094010020EB17A60397
:101F60002808E10F94150020A41300207001002020
:101F7000240B002018070020280B0020AD0F0000C4
:101F8000380B0020F8B504287BD8DFE800F00B03FD
:101F900012A2A7008026402506230724002900F06E
:101FA000848072E04FF400764FF480750823092492
:101FB000F4E7002976D04C4C636A13F0300F61D1FE
:101FC0004A4BDB6B636ADD0705D5636A23F0300398
:101FD00043F010036362042502230324424E356656
:101FE000434E33449B001F68002FFCD0002A48D08A
:101FF0003444A4002368002BFCD0022841D10029DE
:102000003FD0394B5A6A12F0010F1A463FD04FF4B5
:102010008062C3F8A82020225A665A6A12F0300F54
:102020000CBF4FF440024FF40002D3F8901032EA94
:102030000101FAD1520201D5D3F8A0302A4E012273
:1020400000210220D6F89C70FFF79CFFD6F8903054
:10205000726A284B22F0300242F010027262C7F31B
:102060000A07316BFA0903320F2A03EA010328BF7A
:102070000F223B4343EA0273336335662368002B28
:10208000FCD0F8BD0425022303240021A6E7536AEF
:10209000D2F8903003F44003B3F5400FF8D1D2F8F2
:1020A000A030CBE70826022303240F4901200E6647
:1020B00000FA03F3D1F890001842FBD1002AE0D0D7
:1020C0000123094A03FA04F4D2F890302342FBD1E9
:1020D000D7E70125022600232C465FE7202610259E
:1020E000042305245AE700BF00400E4000300E4094
:1020F0008004F21000F8FF0F00F00F0001380728ED
:1021000048D8DFE800F0040F1947232D4735244B4A
:10211000D3F8943003F00703023B052B3CD8214A47
:10212000D05C70471E4BD3F8803003F00703013BAF
:10213000032B33D81C4AF3E7194BD3F8843003F050
:102140000703013B032B29D8184AE9E7144BD3F8BE
:10215000883003F00703013B032B1FD8144ADFE745
:102160000F4B1B6F13F0010F14BF0920072070479E
:102170000B4BD3F85C3103F03003202B06D0302B0F
:1021800006D0102B0CBF0720012070470420704799
:1021900008207047002070470520704701207047D5
:1021A00000400E40EE850000F4850000F885000038
:1021B000F4850000FEE70000044B054A9A60D3F85E
:1021C000882042F47002C3F88820704700ED00E0D8
:1021D000000000000B4BD3F8942002F00702022A03
:1021E00004D001D3042A0AD9074800E00748D3F8ED
:1021F0000031C3F304230133B0FBF3F070474FF415
:102200000040F4E700400E40C0EA210100F049021E
:1022100010B50E4CD4F8002108B9FFF7DBFFD4F855
:102220000031FFF7D7FF0446FEF77CF968B1084B91
:1022300040221A6119B1074A1368002BFCD12046CD
:102240000021BDE81040FEF79DB910BD00400E40D2
:1022500000300E40C800C64308B5FFF7BBFF044B73
:10226000D3F80831C3F308230133B0FBF3F008BD02
:1022700000400E40FFF7AEBF1128F8B505460C46EA
:1022800011D104290FD100216248624EFFF7C0FF2F
:1022900005F00F05013D072D64D8DFE805F01106B4
:1022A0005F635D7D63880026F2E75B4D013C092C8E
:1022B00058D8DFE804F06F585F575766575757559F
:1022C000023C0A2C4ED8DFE804F0423F33394D4D32
:1022D0004D4D4D0645000320052401221146FFF710
:1022E00051FE4E4D4B482F6C41F671332B6400214B
:1022F000FEF726F90FB100232B641EB1484A13687C
:10230000002BFCD1474B5C67FFF7B4FFFEF748F9A1
:10231000FFF7A2FF0446FEF705F901462046FEF747
:1023200031F9FEB930460121BDE8F840FFF770BF32
:102330003D48FEF735F902200446CEE73A48FEF75D
:102340002FF901240320C8E701200324C5E700205A
:102350000424C2E70724C4E7344DA7E7344DA5E7BA
:1023600004232B60F8BD012211460020FFF70AFE6E
:102370000223F6E7012211461046FFF703FE012370
:10238000EFE7FFF769FFFEF70BF92A4B01221A600E
:102390000323E6E70023E4E7072C04D0092CE1D16E
:1023A000204B012201E01F4B00221A67DAE7013CB3
:1023B000072CD7D801A353F824F000BF0F24000046
:1023C0006523000065230000012400006523000050
:1023D00065230000F3230000DD23000003221149E0
:1023E000D1F85C3123F0300343EA0213C1F85C31C9
:1023F000B8E7012211460420FFF7C4FD0122EEE7F1
:10240000012211460220FFF7BDFD0222E7E700226C
:10241000E5E700BF00F0490280400E4000000E409A
:10242000C800C64300400E400148E80188400E4005
:1024300084400E400816C84338B5C0F30323013B5F
:1024400004460D46092B1AD8DFE803F031211A198A
:10245000052427192A2E174B0022C4F3043442B155
:102460001548D0F84411C90703D4D0F840110A42E6
:10247000FBD103F1047304EBC3039B001D6038BD63
:10248000FFF7F8FEFEF78CF800220C4BE5E7002280
:102490000B4BE2E701220B4BDFE710220A4BDCE794
:1024A0004FF48032094BD8E70022094BD5E70022D0
:1024B000014BD2E7B0400E4000400E40B8400E4005
:1024C000C0400E40E0400E40E8400E40F0400E405C
:1024D00050410E402DE9F84F404E414D96F800A076
:1024E000814688461746BAF1000F39D1FEF756F9F2
:1024F0003C4CA0F580502060FEF750F9A0F500603C
:10250000606001213848FFF797FF216808200431F7
:10251000FDF782FE23681B68834208BF2368616859
:1025200008BFD3F804B001F104014FF008000CBF5C
:102530004FF0010AD346FDF76FFE63681B688342C4
:1025400005D163685B685B4506D8002305E0BAF1F6
:10255000000FFAD1FF2300E001232B700123337019
:1025600095F900305A1C28D01E4ADFF880A052F896
:1025700023600C3635464FF6FF7BC5F30A0308335C
:10258000B3F5006F19D2AB885B4516D0A879291D29
:102590000430FDF741FE2B68EC888342E4B202D19F
:1025A000AB884B450CD0033404F4FE740834254446
:1025B00086EA050313EA0A0FDFD0002038700AE02C
:1025C0003B78A342F9D3224605F10801404605F0C5
:1025D000AFFF3C700120BDE8F88F00BF98150020C8
:1025E00010000020DC06002000650A0000F8FFFF54
:1025F0002DE98048B94B5B68ADB013F4806F24AF10
:1026000040F0DC834FF0005300221A603846FEF79A
:1026100083F9FEF7EBF80546002840F0D883B04B6D
:10262000B04E01225A641A6842F480721A6003F5AF
:10263000405302229A639A6B02F00F02022A40F082
:10264000C080DA6C22F0405222F0010242F0010216
:10265000DA64D3F8E02042F44072C3F8E020DA6E86
:1026600042F08072DA66A04B186800B10420FEF7D1
:102670007DFD9E4B9E4DC8221A809E4BA0221A8043
:102680009D4B0F2000241880FDF798FE9B4BAB65F7
:10269000CDE91C4424947C60D6F86831C3F307224A
:1026A000DBB226921E93EB6CC3F3017A22465346AB
:1026B00039461CA8FDF7EAFED5F8E030C3F301293E
:1026C00022464B4625A91DA8FDF7E0FEDDF898C07F
:1026D0001E9A1C9D2498DDF87480ACEB02014FF427
:1026E00016735943B1FBF3F32146259CD2184FF4DE
:1026F000167BA0EB050328BF01210BFB03F3B3FB03
:10270000FBF3ED18A4EB08032CBF4FF0010E4FF0C4
:10271000000E0BFB03F3B3FBFBF318EB03082CBF1A
:102720000123002394454CD300294AD1444548D382
:10273000002B46D1A84244D3BEF1000F41D16C4CCE
:10274000E36D23F4FE4323F0020343EA0223E3652F
:102750005046FDF703FE002833D001214846FDF71F
:10276000FDFD00282DD0636E454538BF4546E72D59
:1027700023F4FF7328BFE72523F0010343EA450351
:102780006366E36B43F48063E363214623469A6FF9
:10279000D507FCD41B6C5A4A13F003030DD0012358
:1027A00013608B6FDC07FCD40B6C23F003030B640A
:1027B0004F498B6F13F00103FBD11360514B012282
:1027C0001A60514C1120FFF797FC012200210220D2
:1027D000FFF7D8FB636A23F0010363624B4B0025CC
:1027E0001D60A36A23F0070343F00603A362484B6E
:1027F000E362226B474B02F07F6213432363464B35
:10280000636304211120FFF737FD394B43481B68F0
:10281000636A012143F04058FFF7FAFCFDF782FE9E
:1028200001463E48FDF7AEFE3C48FDF7B9FE0122E9
:1028300011460220FFF7A6FBC4F82480D4F8C83064
:1028400043F00103C4F8C830B36A354E2CAA0424FF
:10285000B36508A902F8984D35200895FFF73AFEB0
:1028600006238DF81730089B8DF8164013F4803F2F
:102870002C4D0AAC00F0E982B36D8DF82830B36DB1
:102880008DF82930B36D8DF82A30B36D8DF82B306B
:10289000B36D8DF82C30B36D43F060038DF82D309F
:1028A0009DF82E3043F001038DF82E306C601E4BE6
:1028B0001E4A9A6000264FF48071C3E900221E82EE
:1028C00059611B4A1B4BDFF870809A60C3E90022F4
:1028D00059612022314638461E822FE000500E40BA
:1028E00000000E40B081E00F8009C643E6060020DC
:1028F00000300E40E8060020E4060020372110B723
:10290000B40AC6439407C64300400E40A004C8431F
:102910002000050007450BD047A0020000F0490247
:102920000050084080010020500E0020680E00205A
:10293000500D0020380D0020A813002005F003FEE4
:10294000FC2208238DF89320C34A8DF891302592FC
:102950008DF8A13040F20172F823ADF89A208DF87D
:10296000A330BE4ABE4B27924FF001093846299347
:102970008DF8989000F096FCBA48BB4B0360314646
:10298000BA4B436000F0FEFCB1A3D3E90023C8F8C2
:102990000000CDE900234FF0FF334FF0FF3200F08D
:1029A000B9FE02224FF0FF31D8F80000B04C00F021
:1029B000BBFEB04B2493394603F50033D8F8000032
:1029C0002696259300F042FD2146D8F80000267097
:1029D00000F0D6FE464630B12146D8F8000084F813
:1029E000009000F0CDFE3068DFF824A300F03CFF3B
:1029F0002178B5F90020306800F064FC01463068A9
:102A000000F0AEFE6C68002C40F039825046FDF7B5
:102A1000E9FDB37B64F30003B373974B974CDFF886
:102A2000F482974D4FF0200983F80193562283F8E2
:102A30000493002183F8069304F10A0083F80793B6
:102A400083F8059383F8089383F81D9305F07BFDC5
:102A50008C488D4B4FF49072C4E9000332842523D7
:102A60008A4A637201231370237200232CAAC8F8C8
:102A700000301B232B801E2302F89B3D14A9362017
:102A8000FFF728FD2CAA394602F89C9D3920FFF754
:102A900021FD80BB7E4B9DF8152018681B79249082
:102AA0003B71002A00F0F4811B2A28BF1B22531D12
:102AB0008DF8143014A9531C0DF195008DF8933046
:102AC00005F036FD1CA8FDF78DFD724A9DF8143007
:102AD0001288FA522CA99A1C51FA82F2002102F8AB
:102AE000201C1C98BDF8741042F81F0C093322F802
:102AF0001B1C8DF814302CAA202302F89D3D1CA924
:102B00003A20FFF7E7FC48B9634B1A889B788DF8A9
:102B100072300323ADF870208DF813305F4B60489E
:102B200000224FF00209C3E900225E4B036080F8E7
:102B30000490FDF761FB5C485C4B036080F80490F7
:102B400010230372FDF78CFF59485A4B03605A4B10
:102B500080F80490C36080F80890A0F81090CDE948
:102B600000394B4690E806001430FDF721FB9DF834
:102B70001510002900F09D8114A8FDF79BFF4F4818
:102B80004F4B03604FF0100980F80490FDF734FBC1
:102B90004C484D4A4D4B03604FF6FE7B0823C26004
:102BA000A0F810B080F8049003720393FDF758FF6B
:102BB0004748484A02600C220272474AC260A0F8A5
:102BC00010B080F80490FDF74BFF4448444A039B43
:102BD00002604FF0020B434A80F80490C260038207
:102BE00080F808B0FDF73CFF3F48404B0360404B86
:102BF000C36080F804900123038280F808B0FDF7D9
:102C00002FFF3C483C4B03603C4BC3604FF6FE73C8
:102C1000038280F8049080F808B0FDF721FF38485F
:102C2000384B0360384BC3604FF6FE73038280F865
:102C3000049080F808B0FDF713FF344B174A1A6070
:102C40004FF6FF729A809DF8142065E0AFF3008084
:102C5000081B1005000000000C860000FC85000029
:102C600050860000D8130020590D0000CC1300201E
:102C7000140000203C00940000E100E0CC000020A3
:102C800072010020D6BE898E55555500680F002070
:102C9000048700001487000017870000C806002082
:102CA000541500201B870000080500201E87000027
:102CB000EC06002021870000E2850000741500204A
:102CC0002487000060050020FD1200003587000009
:102CD000B805002046870000A11C00000004002069
:102CE00057870000948600001006002068870000C7
:102CF0009B870000580400207987000071090000BC
:102D0000A80300208A870000950C0000D006002050
:102D1000B0130020A4030020202A05D8931DA3731C
:102D20003946B64805F004FC9DF81320202A06D841
:102D3000931D84F836301CA9B14805F0F9FBFEF765
:102D40008DF8237BB27B43F001032373637B02F096
:102D5000010203F0F00362F386136373A37B0BB9E4
:102D60000623A373A74BBAF80410B068C4F80F0089
:102D7000998094F83530042161F3030362F38613DC
:102D800084F8353094F8363013B9062384F8363099
:102D90009D4BB068BAF80420C4F837009A80FEF75B
:102DA000B9F89A4C9A4B1B78002B40F0C380994A93
:102DB000136923F00403136130BFF3E74FF00053AE
:102DC0001A68022A7FF41EAC00221A6027E49DF8DC
:102DD0009030012B32D1446BFEF7FCFB269B5E0743
:102DE00015D5FDF703FDFDF787FD0446FEF764FAF0
:102DF000002C3FF414ACFDF7F9FC0446FDF7F6FC9B
:102E0000844B986023689D466368984707E484B1C3
:102E1000FDF7C4FC84420CD2FDF7C0FC04F1400372
:102E2000834206D8636923B12046FDF7BFFC002822
:102E3000D7D105F1FC00FDF7B9FCD6E7FC30FDF772
:102E4000B5FC00283FF4EBABD5E70DF117022146A6
:102E50002C20FFF73FFB00283FF429AD0DF11602AF
:102E600007A93C20FFF736FB9DF82E3020B19DF8D6
:102E70001C2062F3000317E560F3000314E52068EB
:102E8000B060A288A3798AF80630AAF80420C4E5C5
:102E90000E238DF814300A238DF893305E4B1A6898
:102EA000CDF895205A681B7ACDF899208DF89D3081
:102EB00008E60921584860E6EFF3108672B6002351
:102EC0001A460DF119015548FDF7BAFE3046FEF7D6
:102ED00063F99DF8193013B10023C8F80030D8F811
:102EE0000020EFF3108672B6C2F501739BB2224444
:102EF0000DF119014948FDF7A3FE03463046FEF7E0
:102F00004BF9D8F8000018440328C8F8000011D97C
:102F1000B4F8009009F1040398420BD307D86088F5
:102F200004284FF000070BD0062800F09081002302
:102F3000C8F800303948FDF7B3FB0028BCD136E7AC
:102F400022796F8009F1FF33082A9BB200F0F680E6
:102F50001BD8042A324E38D0062A65D0022A1BD14B
:102F6000022B40F07081B4F805700022B7F5007FA5
:102F700028BF4FF400770323114602203370A6F8D0
:102F80000170FEF785F92F80D1E7102A00F00B8140
:102F900004D80A2A00F087800622AAE0122A00F04C
:102FA000B180522AF8D1B4F80500FDF7F1FC0028F1
:102FB000BDD0037B5B07BAD5A9F1030292B21949D0
:102FC000B4F80500FDF732FDB1E7042B40F0918025
:102FD000B4F80570B8B2FDF7DBFC58B1027A41686D
:102FE0007780022A14BF02230123052030707370FA
:102FF000032076E06F800A227BE000BFE100002022
:1030000009010020DB00002003010020A0010020B6
:10301000C406002000ED00E00A870000380D002003
:1030200076010020A7010020DFF840B2B4F80500C7
:10303000B4F80710CDF840B04FF00203A9F1070231
:103040008DF8443092B20BF102030093019210AB61
:103050000CCBFDF73FFE4FF6FF7A5045814604D179
:103060006368C3F30F236B80C5E7CDE900774FF0AA
:1030700002038DF83430CDF830B001300CAB0CCBFE
:10308000514680B2FDF726FE50451CBF00F1FF30CF
:1030900080B207233370A6F80190A6F8030000223F
:1030A000114604201DE0022B40F0CD80B4F805004D
:1030B000FDF76EFC00283DD0037B990714D52B88C3
:1030C0002CAA013B22F88C3D10A9B4F80500FDF7AD
:1030D00087FC024648B9634BBDF824200B211970C8
:1030E0001099FEF7D5F822E702226368C3F30F2395
:1030F0006B805C4B20796988587001261E7059805E
:103100001A71CCE7B4F80500FDF742FC90B1037BDF
:103110001A0711D5A9F1030292B25349B4F8050078
:10312000FDF784FC02460028DFD14E4B13211970B5
:103130000146D6E70122D8E70322D6E7A9F1050B1D
:103140001FFA8BFBBBF1020F02D0BBF1100F7CD139
:10315000464BB4F80500B4F8071010930023CDE9EE
:1031600000338DF844B010AB0CCBFDF7B3FD4FF638
:10317000FF73984206463FF473AF2B882CAA043B9A
:1031800022F8963D09A9FDF72BFC024608B16E8096
:10319000AFE7344BBDF81A205E8009211970911CED
:1031A0005970099924E7A9F1050B1FFA8BFBBBF1B4
:1031B000020F02D0BBF1100F47D10027B4F8050071
:1031C000B4F80710DFF8A4A0CDF840A0CDE900774F
:1031D0005FFA8BFB8DF844B010AB0CCBFDF77AFD9A
:1031E0004FF6FF79484506463FF43AAFCDE9007700
:1031F000CDF838A08DF83CB001300EAB0CCB494671
:1032000080B2FDF767FD2B882CAA4845A3F1060381
:10321000074622F8963D18BF00F1FF3709A930464E
:1032200018BFBFB2FDF7DCFB02460028AFD10D4B43
:10323000BDF81A205E8011211970111D59709F80F0
:10324000099905204DE7042253E7024651E7084B50
:10325000109310A90223CDE912771193FDF7F0FF27
:1032600065E600BF76010020A7010020A90100202B
:1032700011000020FEE7000008B5FEF79DFF064B99
:103280000649074A8B4201D3FCF758FF52F8040F56
:1032900043F8040BF6E700BF10000020B000002048
:1032A000C0A2000038B5044600F07CFA0FCC044DF3
:1032B0000FC594E80F0085E80F00002038BD00BF5F
:1032C000A018002047F6FF739A4270B553D0022928
:1032D00053D82B4B13F8310001281D464FEAC1018A
:1032E0000CD10B44D878013800B220B1596831F9BB
:1032F00010109142F7DC0130C0B270BD0B44586829
:103300000028FAD0B0F90040944204DBB0F9024042
:103310009442B8BF14462944A4F1C803497828222E
:1033200093FBF2F35B421BB29942DCBF01F1FF3326
:103330001BB24FF47A7600EBC3050133EA88AD681F
:103340001BB214FB025222EAE272994202F5FA72AF
:10335000B2FBF6F204DD00EBC305AD889542EAD27C
:1033600000EBC30030F8040C904228BF1046002840
:1033700008BF0120C0E7FF20BFE70020BDE700BF76
:10338000A018002038B5084B04460D46186000F020
:103390003BF82946204600F027F8044B021C18BFD2
:1033A00001221A7038BD00BFC0180020C4180020C8
:1033B0000846114600F03CB800B10C3001F0B0B93D
:1033C00000B10C3000F0B4B97047431E012B03D993
:1033D000031F5842584170470120704708B500F05C
:1033E0008DFB0128FBD108BD38B504460D460021F0
:1033F00000F0B4F92946204601F044F800280CBF3B
:103400002046002038BD000010B5044600F044FB03
:103410003CB1054A236C002B08BF1346034A1360D6
:1034200010BD636BFFDE00BFC93300001C0000202D
:1034300010B50C4600F04CFB1CB1BDE81040FFF786
:10344000CDBF10BD00B10C3000F0BEBC00B10C30DF
:1034500001F078B8836A2DE9F74F0446884613B126
:1034600083888B4246D0D4F82490B9F1000F45D020
:10347000D9F80830002B41D0D9F80C30002B3DD0C2
:103480000026B24637464FF0180B47F6FF73D9F8BF
:103490000C20524502D80FBB01202CE0D9F808506F
:1034A0000BFB0A55EA89424513D82A8A424510D3B4
:1034B000B5F912209A420FD094F864100193A4F148
:1034C0000C00FFF7FFFE019B0646A278B2422F4692
:1034D00004D90AF1010ADAE7FF26F6E704F17003DE
:1034E0003A464146204600F00EFDA4F80480A7624B
:1034F00084F86D60002003B0BDE8F08F0320FAE788
:103500002DE9F0473A4F3B4E04468946924601F07A
:103510001DFA3D6801F028FA00285CD000233360D2
:1035200001F01AFAA36A3268934203D113B1ADB223
:103530004D455AD000F0E2FA012804D0012000F0F5
:10354000C7FAFFF74BFF2C480368D4E909128046FD
:10355000002B45D08B4203D1306808B1824242D063
:103560001D68002D3CD00868854239D13168126849
:1035700011B10968914236D05968204600F0D4FE56
:103580000546A17894F86D30994228BF1946204627
:1035900000F083FC65B9636AC8F80030A26A326043
:1035A000012349462046C7F8009000F0E9FC054693
:1035B000B5FA85F03321400900F03AF9514620462A
:1035C00000F0BCFE0D4BA16A1B68A4F10C009847EB
:1035D0002846BDE8F087BAF1000FA3D03060A1E71C
:1035E00012680968C9E70025CBE70025F0E700BFAE
:1035F000C8180020D0180020CC1800201C00002083
:1036000038B504460D46FFF725FF024628B929467E
:103610002046BDE83840FFF773BF38BDF8B50D460A
:103620000646084600F088F92F1C18BF01273846C7
:103630001F21002400F0FCF838461F217562B46297
:1036400000F0F6F8E86823464FF6FF711827DAB263
:1036500082420BD30C460B4A002313600A4A2146D0
:1036600030461360FFF7CCFF2046F8BDAC6807FB7F
:103670000242D4898C4202D2002CECD02146013384
:10368000E5E700BFCC180020D018002080887047E4
:1036900038B50A78054610460C46FFF796FE88B105
:1036A00049780846FFF791FE60B10A43520709D4F2
:1036B00000F024FA430707D421462846BDE83840E5
:1036C00000F0B0BB012038BD0220FCE700B10C3097
:1036D000FFF7DEBF38B5054608780C46FFF775FEE4
:1036E00080B14A781046FFF770FE58B1042A09D01D
:1036F00000F004FA830707D421462846BDE8384085
:1037000000F09EBB012038BD0220FCE700B10C3068
:10371000FFF7E0BF30B4DDE9024500B10C30CDE980
:10372000024530BC00F08CB900B10C3000F0A2BAF8
:1037300070B504460D46164600F0E0F901280BD19D
:1037400029462046FFF75CFF38B932462946204615
:10375000BDE8704000F002BA022070BD01F00CB963
:1037600038B5044600200D4600F0E4F834B104F109
:103770000C002946BDE8384000F0A7BB2046F8E71A
:1037800038B5044648880D4600F0D4F804B10C342E
:103790000021204600F099FB29462046BDE838402C
:1037A00000F05EBB00F0C7B800B10C3000F015BDF2
:1037B00000B10C3000F02BBD07B502AA4FF4007326
:1037C00022F8023D0749FFF7F3FFBDF80630B3F5D5
:1037D000007F05D1022808BF002003B05DF804FB7C
:1037E0000120FAE7D41800200846114600F014BC66
:1037F00000B10C3000F0DCBC38B5154658B100F112
:103800000C0411B1204600F019FD35B12046BDE889
:10381000384000F05DBD0446F3E738BD024B196047
:10382000024B1860FEE700BF2000002024000020AB
:1038300008B528B9034B1960034B1868FFF7EEFF72
:1038400008BD00BF20000020C018002010B50446AD
:1038500001F0C8F8237843F00103237020460321C8
:10386000BDE8104000F024B900B10C30FFF7EEBF06
:103870000378DB0710B504460CD500F03FF90128AA
:1038800008D123786FF3410323702046BDE8104030
:1038900001F08CB8022010BD00B10C30FFF7E8BF7A
:1038A0000378DB0710B504460CD500F027F9012892
:1038B00008D123786FF3410323702046BDE8104000
:1038C00001F066B8022010BD00B10C30FFF7E8BF70
:1038D000F8B51F4603789DF818401546DA070646E6
:1038E0001DD591FAA1F1080A00F0B8FAEB0703D54B
:1038F000304601F080F860B1AA20294601F082F834
:103900004CB9012247F04001442001F09DF800200D
:10391000F8BD5520F1E7002211461046F5E70220D8
:10392000F6E710B49DF8044001940C305DF8044BA8
:10393000FFF7CEBF70477047024B31215B68012013
:10394000FFF776BFB081E00F024B1B6803B1184749
:10395000704700BFD41A00207047000003785A0750
:103960002DE93048044619D5826ABAB16FF3820353
:103970000370536919684B1C03D0BDE8304801F04F
:10398000FBBBD0E922234FF0000B03F0080C5BEAED
:103990000C0305D1037843F004030370BDE83088BD
:1039A0004FF4803101F084F8D4E9222302EA000BBD
:1039B00003EA010C5BEA0C03F0D004495A46A4F177
:1039C0000C0009686346BDE830480847280000201D
:1039D000F7B506460C46174D39B90A46072103F0DC
:1039E000D1FFC5E9004403B0F0BD134B07271F60AA
:1039F0000B792B7002A84B7940F8043D012103F0AC
:103A0000DDFF019BC2B2D34000F00F0040EA03107B
:103A10006870A379AB70E379EB7023686B602379EE
:103A2000064A0133936139463A46304603F0AAFF0D
:103A3000D9E700BF481F00210400084400000840E7
:103A40002DE9F34BDDE90A67D0E92289044689EACA
:103A5000070188EA060001EA030C00EA020B8CEA7F
:103A600009018BEA0800C4E9220122F0010006EAFC
:103A70000008002507EA0309194648F0005249F0FA
:103A80000803CDE9005503F007F92046FFF766FF6C
:103A9000284602B0BDE8F08B034A0368002B08BF3C
:103AA0001346024A1360704759390000280000206D
:103AB00031F00F0001BF054A136801F00F0123F038
:103AC0000F0306BF0B43136001207047501F0021F6
:103AD000032811D8DFE800F00E02070A0022114681
:103AE000012003F09BBB00220121F9E701221146CE
:103AF0001046F6E70022FAE7704700000F4B5B68BC
:103B0000C3F30363013B0B2B0DD8DFE803F0141460
:103B10000614141414080A08080803207047042027
:103B2000704705207047064BDB6813F0060F14BF83
:103B30000420012070470220704700BF0040084069
:103B400000500840044BD3F8883013F0A00F0CBF8E
:103B500001200020704700BF004008407FB5154697
:103B6000B0F84C202B792968012B1BD18A421ED832
:103B7000891A1A1C18BF01222C7B022C19D0003480
:103B8000AB6818BF0124AE7B003618BF0126029631
:103B90006D7BB5FA85F56D09CDE9004503F0F6F9C1
:103BA00004B070BD022BE3D11A460021E4E70021E6
:103BB000DFE70023E7E700000138C0B202289CBF1E
:103BC0000F4B53F820200F4B4FF06051196003F159
:103BD000007388BF00221A604FF400121A600A4A6C
:103BE000136F23F0060343F004031367074B4FF0F2
:103BF000805119600423C2F884300020704700BF50
:103C0000D887000018600844000008409440084627
:103C1000114B1B7813B1114B06221A60104B002276
:103C2000C3F884200F4B4FF080521A600E4BD3F82C
:103C3000883013F4800F0D4B09D1826912F0800F88
:103C400018BF0B494FF4001214BF0A601A604FF0FE
:103C500060521A6000207047DC1A0020700008448F
:103C600000000840944008440040084018600844A0
:103C70001860084670B51446826982EA04030B4056
:103C800053400646836108070D4606D514F0080F19
:103C900014BF424A424A08231360E90706D514F0CC
:103CA000010F14BF3D4A3E4A012313606A070CD539
:103CB00003F028FA14F0040F14BF3A4A3A4A4FF4BA
:103CC00000731360394B04221A60AB0706D514F059
:103CD000020F14BF314A324A02231360E80606D5A8
:103CE00014F0100F324B14BF00221B22DA64290695
:103CF0001FD522062DD52F4B4FF400121A6003F169
:103D00007E43E03301221A60FDF70EFA2A4B5B680E
:103D1000C3F30363032B06D1284A136823F0F0038F
:103D200043F0E0031360224B40F201225A62FDF798
:103D300033FA15F0600F29D004F0600404EA05019D
:103D400040291E4B24D0602914D0202923D10122E0
:103D500018E0194BD3F888305B02EAD496F840306B
:103D6000174A4FF400111160002BE2D0154B0122CD
:103D70001A60DEE7F26A72B1116801290BD9526943
:103D800042F001021A610C4B80229A60002070BD43
:103D900040F20112F6E70022F4E700BF44000846B3
:103DA000440008441C6008461C60084488400844DD
:103DB000000008401860084600400840501F0021DD
:103DC00018600844F8600846014B986902F0CAB8C8
:103DD00000600840C26A62B11368022B09D9536AB5
:103DE000C3F3072040B1126ADBB25343B3FBF0F0D8
:103DF00070470C38FFF726BB70470000064BD3F81E
:103E000030311B0401D4FFF7E5BF0A78034B0448A7
:103E1000012A18BF184670470060084020A107001B
:103E200048E8010010B5054A4B780C7810881B064D
:103E300043EA044303431360002010BDFC1E00212D
:103E4000054803681A0C0B78120413434A7843EAB6
:103E50000223036000207047FC1E002102F0D6B848
:103E6000F8B5044600F16406086860668B88A4F81B
:103E7000683008460D4601F0C1FB0746304601F0A8
:103E8000E7F9A988204601F007FBA4F8680004F1CF
:103E90003C0002F0C4FC3846F8BD38B5054690F841
:103EA000640003280C460ED001F0F2F9A04204D8B9
:103EB00095F8640001F0ECF90446EC70204601F03E
:103EC000F3F9002038BD0220FCE738B590F86430E3
:103ED000032B044613D0A170836A00258BB190F8A0
:103EE0006D308B4208D28562FFF7D0FB0146204639
:103EF000FFF786FB284638BDFFF7CFFFFAE7022021
:103F0000F9E71846F7E72DE9F0411C4615460E463D
:103F1000804602F053F9002814BF0746012788F8AD
:103F20006C70A9896B682360761A668101F066FF60
:103F3000AB686289000BC0EB8040B0FBF7F0B3EBDD
:103F4000D01F89BF2168636003FB0211216084BF19
:103F5000002161603F2A08D9216890099B0100FB7C
:103F6000031302F03F022360628102F037F920B1AF
:103F700041F658332381BDE8F08140F6AC53F9E7B0
:103F80002DE9F0411D46036A012B04460E461746F3
:103F900026D090F86C8002F011F9804506D004F12B
:103FA00070033A4631462046FFF7ADFF35B1D4E9FC
:103FB0001C0102F0C7F9B0B1022012E002F0F2F8E1
:103FC000236F9842F3D102F0F3F8636F9842EED179
:103FD0002046FFF7C3FC0121B4F87A0002F0D6F9BD
:103FE0000020BDE8F081B4F878304FF47A7058437F
:103FF00002F0ECF9ECE74FF4807103F0D5BC00005F
:104000004FF4807310B9024A13607047014AFBE70E
:10401000884008468840084437B50DF106020D4631
:1040200000F0E6FF044688B185B12B7813F0F70F56
:104030000CD0FDF779F8074BBDF806201C60064B45
:104040001A80064B6A881A80FDF7A6F8204603B04E
:1040500030BD00BFE01A0020E41A0020DE1A002064
:104060002DE9F34106461446084619B9012002B06D
:10407000BDE8F081002AF9D0022905D800221146B6
:1040800000F0B6FF0028F1D0058882782F0402F0F6
:10409000070800F1888003794779A8F107004142B9
:1040A00041412173C2F300116173C2F38011217485
:1040B000C2F3C001C2F340126174A2740BB996F846
:1040C0005E30013BE37401F0F3FEC2B2002A64D01B
:1040D000A8F10608B8F1010F5FD8344BDB6CAB1FB9
:1040E0009BB26946012000F0CFFD9DF801009DF8CC
:1040F00000304000FA06C0B25DB21BD507F0EF07F2
:10410000063F032F16D8DFE807F0020C274115F110
:104110004E0F0FDA6FF04D035B1B03EB8303184464
:1041200007E015F1480F05DA6FF047035B1B00EB62
:104130004300C0B2B36B0BB129469847E073A57337
:10414000627CDDF8021006F13C0002F0E9FB01237D
:104150002060237200208AE703F10902D2B2072A05
:1041600005D86FF001035B1B03EB4303DFE7443328
:10417000DBB23A2B01D82330DBE715F1440FD9DA53
:104180006FF044035B1BC3EBC303C8E7042DD1DC12
:10419000C5F1050300EB8300CBE700208023E3811A
:1041A0002060207263E7022061E700BF0000084042
:1041B000F8B506461446177AFFF752FF054650B980
:1041C000237A43B104F1110127723046FFF716FE3E
:1041D000214602F071FB2846F8BDB3FA83F3192B90
:1041E000084610B5114610D0C3F11902D2B2062A02
:1041F00028BF0622931D01249C40A4B2A14228BFDF
:10420000214600F0BFFC204610BD0022F2E7084620
:104210001188B1FA81F1192910B50DD0C1F1190138
:10422000C9B2062928BF06218C1D0123A340138093
:1042300000F0C4FC002010BD0021F5E7094B01216E
:10424000D3F8EC20996203F18063243352074FF4D2
:104250000051196041BF03F10073C83304221A6092
:10426000704700BF0010084038B54B7805460C4633
:10427000C3B9FFF7CDFCA378C3B9114B40F6FF7269
:104280005A62E378B3B90E4B40F6FF725A6503F1F8
:10429000C063A3F6BC7360221A600A4B40221A6006
:1042A000002038BD1846FFF787FCE4E72846FFF7F3
:1042B000C5FFE6E7044B60221A60044BEEE700BF3F
:1042C00000100840884008444400084488400846DC
:1042D00038B50C4BD3F8EC5003F18063EC334FF45A
:1042E00080641C60084B0020186002F07FFF074BC1
:1042F0004FF400521A606A0542BF03F1007398330D
:104300001C6038BD00100840E01A0020541008441A
:10431000082310B1024A13607047024AFBE700BF4E
:10432000884008468840084410B50846144601F005
:1043300073FD204601F070FD002010BD2DE9F0470F
:10434000404F04468A4601F039FF3B68984201D04D
:1043500001F038F93C4B3D499E6906F4E076A6F53C
:10436000C072564256413A4A92F80090394AD5688E
:10437000D3F88420E56212F4E05F04BF2022C3F882
:104380001022D1F8A030344AC3F381231370D1F83E
:10439000A4302189C3F3812353704FF6FF739942F0
:1043A00004D02E4B1B680BB1204698472C4B1A6843
:1043B000AA42984637D02046FFF70CFD02F074F869
:1043C00065B3296801B1A968264B1B680BB120466B
:1043D00098472DB32B681BB32B690BB35A681B6826
:1043E0006264E3634E4504D01F4B2046196801F018
:1043F00053F804F13C0002F00FFAC8F8005001F045
:10440000DDFE2378386043F004032370174B062247
:104410001A60174B01221A70BDE8F0872946D3E7CE
:1044200000236364DDE7BAF1000FDBD14E45E4D031
:104430000D4B2046196801F02FF804F13C0002F002
:10444000EEF9DAE7F01A00200060084000000840AA
:10445000981B0020EC1F0021EC1A0020F41A002009
:10446000E81A0020D81A0020F81B00207000084429
:10447000DC1A002048220021014804F064B800BF83
:10448000001F00212DE9FF4188460446002851D035
:104490000023436243730393A36363654FF0641384
:1044A0004FF6FF720021C4E91633236600F10C07B2
:1044B000214BA4F8F0200020C4E92501A28211209C
:1044C0001A80FDF719FE042832D11C4B5E6816F4E1
:1044D00040362DD1384602F04FFE3846FFF7CAFF6E
:1044E000174B60225A6403A93846FFF7BDFE626A83
:1044F00005464FF0FF313846FFF7BCFB4FF0005246
:10450000082310461946CDE9006602F0C5FB00F00D
:10451000A9FE4DB92046FFF74FF90546B8F1000F47
:1045200002D008B92046C047284604B0BDE8F08153
:104530000225F9E7A061FFDEFC1A002000300E40E2
:104540000000084070B50C46054600F13C0609889D
:104550004C3002F045F96188208005F1540002F0EA
:104560003FF9A188608005F1520002F039F9E18835
:10457000A08005F1500002F033F92189E080304637
:1045800002F03AF961892081304602F03DF96081FC
:10459000304602F041F9002070BD0000B0F8E43070
:1045A0004FF6FF72934211D0094A0A49D26D100C9E
:1045B000C2F30112088001320749B3FBF2F3074A44
:1045C000074808601B0413600020704703207047F1
:1045D00000600840FC1A00205C6008445C600846EB
:1045E0000000FFFF70B505460E461446FFF7AAFA15
:1045F000002878D04FF40061284603F0D5F938B18F
:1046000001210846FEF714FF394B4FF400721A607F
:1046100031462846FEF7F4FF0646002858D1354BB0
:104620004FF440621A6014F0020204D1324B334955
:104630001B789B020B60324B4FF44061196022B92A
:104640002D4B304A5B789B02136002F05BFD14F047
:10465000040F14BF2C4A2D4A4FF480631360244B7F
:10466000042214F0400F1A6014BF294A294A40233B
:10467000136004F01803182B274B2BD100225A612A
:104680002846FFF7B8FC18B104F00100FFF7B8FCAA
:10469000A20602D52846FFF781FF284600F074F9EC
:1046A00098B12846FFF7A7FC78B14FF400112846CF
:1046B00003F07AF900280CBF03210421002000F048
:1046C000ECFA431C11D0154B58600020FFF732F96B
:1046D000304670BD200701D50122D0E7E106CDD5D7
:1046E00040F20112CBE70226F2E70326F0E700BF13
:1046F00088400844A0000844EC1A0020A0000846A6
:10470000A4000844A40008461C6008461C60084435
:104710008070084680700844501F0021EC1E002164
:1047200073B506461D46FFF75DFF044688B995E858
:1047300003006A4682E803009DF80430B6F8521080
:10474000012B034607D1884205D20094104602F09F
:104750009DFC02B070BD5B1A0093F7E7094A13880D
:104760004FF6FF718B4210B509D00748074C046023
:1047700000F100701B0403601180002010BD0320B5
:10478000FCE700BFFC1A00205C6008440000FFFF4B
:104790005D4B2DE9F3471C6881468A46154604B1F6
:1047A0000C3457A1D1E9000100EA090201EA0A0329
:1047B000134367D009F48010002150EA0102534BE3
:1047C00018BF534AD3F81C3118BF136009F4001006
:1047D000002150EA01021CBF4E4A136009F000524A
:1047E0000023134309D04C4B1B6803F07F43B3F104
:1047F000007F02BF494B02221A6009F00102002328
:10480000134330D04FF00008002200230021012084
:10481000CDE9008802F040FA012001F0C5FB4146D5
:10482000E0800120FEF704FE3D4BD3F888305A02A9
:1048300008D4A36913F0800F14BF3A4A3A4A4FF4E0
:1048400000131360394B1A683AB139496FF0FF0011
:10485000086001F1007102400A6000221A602378AA
:1048600043F01003237000220AF00803134309D019
:104870000121204600F01CF92AF0080749EA000946
:1048800047EA010AD4E9222309EA02000AEA0301FD
:1048900002460B46134306460F461CD0254BA4F197
:1048A0000C0019683B468847194A4FF0FF331360E4
:1048B000184A136006F00802002313431EBF1E4B64
:1048C00000221A601D4A002316401F4056EA0703C3
:1048D00001D0FFF743FFEB070DD51949194A0868C6
:1048E000136800211160184A012111701BB102B038
:1048F000BDE8F047184702B0BDE8F087AFF300808D
:104900000100302008000000C018002000500840BE
:10491000300000202C000020FC1E00210040084632
:10492000004008401860084618600844F81A002043
:104930001870084428000020E01A00200000F02F22
:10494000041B0020001B0020FE1A0020014B5B68A6
:10495000704700BFB081E00F024B4FF400221A6095
:10496000704700BF88400844024BD3F88800C0F36A
:10497000C040704700400840014B024A1A6070472F
:10498000D81A0020D1390000802103F00DB80000B2
:1049900008B5012280F840202822A0F84A200249C8
:1049A000FEF73CFE002008BDD48B000008B50122B4
:1049B00080F840202822A0F84A200249FEF72EFE67
:1049C000002008BD3C8A0000054B4FF4F0621A60DD
:1049D00003F100734FF400721A60012001F050B926
:1049E0004400084410B50446FFF7E0FF2046BDE848
:1049F0001040FFF7E9BF007800F00300C31E5842E3
:104A0000584170470D4A1166D36D552823F00F03A6
:104A10000CBF43F0010343F00203D36591FAA1F305
:104A200090FAA0F1090B01F4702141EA1341044B03
:104A3000044A1A6003F1007319607047006008406F
:104A4000FC600844FFFF0F00134BD862196303F1A9
:104A5000806334330721196003F100738AB10121A7
:104A600019600E4BD3F8303113F4004F4FF48043EC
:104A700000D142B90A490B6042B14FF48043094A60
:104A800005E01A60EDE7084A1360F6E7074A13608D
:104A900053609360704700BF00000840006008400A
:104AA000A0000846A4000844A0000844A40008464A
:104AB00038B505460C46FCF737FB69692B690C4095
:104AC00023432B61FCF768FB00200CB9002138BDA3
:104AD0000821FCE70A4B0B494FF48032C3F8E82069
:104AE0000A609A6BD1B2C2F3072299679A670422CF
:104AF0009A6700229A679A679A679A679A677047D7
:104B000000100840EC1008462DE9F74F00EB40007C
:104B1000040104F1804404F501241D4626689DF833
:104B20003030019306F00706B31D01269E40771E24
:104B30008A46636805EA0701A6EB010843F0005BBB
:104B400042459146594418D94246504603F0F0FC7C
:104B5000A9EB080259460AEB080003F0E9FC019BA7
:104B600043B14D443E433540E560A368AB421CBFB2
:104B70000223A36203B0BDE8F08F504603F0D8FCD7
:104B8000EDE7000038B50C4C226060600D46FCF784
:104B9000CBFAD4F8E0305B0758BF04234FF0000293
:104BA000E260A56058BFC4F8E830FCF7F5FA0DB133
:104BB0000223A36238BD00BF00100840044B1860F8
:104BC000044B40F6FF72196058605A62704700BF8C
:104BD000081B00203010084000EB40002DE9F84F82
:104BE000040104F18044042A04F5012406D8013AA2
:104BF000032A2DD8DFE802F044413E3B0B78A36145
:104C00004B78A3618B78A361CB78A3612768D4F834
:104C10000880D4F804A007F00707BB1D01279F40B8
:104C200007F1FF3909EA0800161FA7EB000B5E45E4
:104C300001F104054AF0005A0CD829465044324686
:104C400003F076FC06EB080249EA07073A40A26047
:104C5000BDE8F88F5A462946504403F069FC05EB3D
:104C60000B01A6EB0B02504603F062FCEAE70B785F
:104C7000A36101310B78A36101310B78A36101318C
:104C80000B78A361BDE8F88F37B500250095144671
:104C9000FFF73AFF204603B030BD3023584310B52C
:104CA00000F1804404F501242046236803F0070343
:104CB0009A1D01239340226AC2F30C028A4284BFE8
:104CC0006268E06803F1FF339BB281BF09180B40B3
:104CD0009B1803F1005394BF4FF0FF30187810BDBC
:104CE0003023584300F1804000F50120006AC0F3F2
:104CF0000C007047402910B50A464FF001030BD84D
:104D0000064C0146C4F8B8300320FFF765FF0423C2
:104D1000C4F8B830002010BD1846FCE70010084069
:104D200010B5FCF701FA1C4B1C491D4C01229A6579
:104D3000C3F888200A604C6007244C6219490C8033
:104D4000194C002121804FF4A024C3F8E84003F15E
:104D5000C063EC331C60154B1960154BD3F88830D9
:104D60005C0212D5134B14491B684FF480040C608D
:104D70007BB1596A090608D493F84C300F494FF4B7
:104D800000140C600BB10E4B1A60BDE81040FCF72C
:104D900003BA9B69FFDE00BF0010084060100840A6
:104DA000101B0020921B0020901B0020941B002051
:104DB00000400840C018002088400844186008449B
:104DC000F86008460C4B07221A800C4B00221A8010
:104DD0000B4B1A604FF4005258605A62094BF02294
:104DE0001A6003F10073A0221A60074B0122C3F876
:104DF000B820FFF795BF00BF921B0020901B00203A
:104E00009010084040000844001008402DE9F0418F
:104E1000044698B1434EFCF787F93188424BDFF8DE
:104E20002CC101F07F0202F07807022C05461F44D6
:104E300064D1DCF8004024B9FCF7AEF90320BDE8EA
:104E4000F08124F00104DCF8000020F00100A04211
:104E500058D10023CCF8003023886FEA43436FEA2F
:104E60005343BC4223803DD1304ADFF8E4C013886D
:104E7000ACF18008CF18083B9BB204F10801F81A86
:104E8000614528BF4146082B80B204D9B1F900E042
:104E9000BEF1000F41DB13802288A178244CC2F3BD
:104EA0000C02E26301F00701C2B2224832800429F9
:104EB000C260436216D1204B204AD3F88830204B81
:104EC0001B684FF4800111604BB35A6A120609D473
:104ED00093F84C301B4A4FF40011116013B11A4B78
:104EE00001221A60124BD3F8E030DB0301D5FFF743
:104EF000F1FD2846FCF750F90020A0E7012C08BF7F
:104F00003C46A0E7A21AD31A084A128848BF803349
:104F1000083A9A42A0DC28468EE70C46ABE79B692C
:104F2000FFDE00BF901B0020101B0020921B002002
:104F300000100840601008400040084088400844C5
:104F4000C018002018600844F8600846941B002030
:104F5000901B00200D480E4A038812880D491A4400
:104F6000073A02F078020A4408339BB20380907833
:104F7000094900F0070004284B6203D107494B6838
:104F80001B03FCD4064B1A60704700BF921B002025
:104F9000901B0020101B00206010084000400840BB
:104FA000941B002010B5054C206828B1C30701D41C
:104FB000FFF72CFF0023236010BD00BF941B0020CF
:104FC000094B4FF480321A60084BC3F8E420D3F841
:104FD0008020C2F30C02782A05D8D3F8E030DB0336
:104FE00001D5FFF777BD7047EC100844001008406A
:104FF0002DE9F04705460F461446FCF795F84F4B50
:105000004F4E1988824601F07F034E4803F0780224
:10501000022D02441BD14C4DB6F800C02D689DB93D
:1050200001EB0C05073D05F078050544EB1A1B1A4A
:10503000318848BF803399420DDC5046FCF7ACF80C
:1050400000252846BDE8F08725F00105EEE7012D93
:1050500008BF1546EAE70FB9002C45D095423B49F9
:1050600046D1CE68B6B204B126800A68002F3BD084
:1050700002F0070808F106024FF0010808FA02F8EA
:10508000334AD2F88020C2F30C029A421FFA88F900
:105090003CDD2B889CB21B04CFD4AB78C4F30C044A
:1050A00009F1FF3003F00703A41B49EA00000440A4
:1050B000052B3B70A4B225D824B2E0430421C00FD5
:1050C000FEF7B6FB7C8009F1FF331E40214B1B68C5
:1050D000A4B29A19BA6032194245CBBFA9EB0606B1
:1050E0000023BE80BC80FB605046FCF755F8A8E763
:1050F000A5F10802824238BF05F178021688C6F38E
:105100000C06B0E700F0D4FE241AD5E78A6809F14E
:10511000FF33921B49EA030313400F4A9BB21CB2B0
:10512000526843B9C2F30362032A14BF0022082263
:105130003A707B80C7E70822FAE700BF901B002087
:10514000921B0020101B0020941B002030100840F0
:1051500000100840081B002000400840431C08D0F5
:10516000044AD2F83C311B0C1B0480B20343C2F842
:105170003C3170470040084010B504460846FFF730
:10518000EDFFA36A13B15B6903B11960002010BD84
:1051900038B50D46044600F031FEAC4042F21071C5
:1051A00064094C436423B0FBF3F0B4FBF0F038BD6A
:1051B00030B51F490B78032B34D01E4A4988136839
:1051C000B1F5E16F23F47F538CBF5A24C82423F038
:1051D00008038CBF50257825A0429ABF190A01F414
:1051E0007F5143F6C8710B431E2813608CBF124ACF
:1051F000124A012313609361114B1B789BB1A842A3
:1052000011D9104A4DF60173136093610E4BA04201
:105210008CBF4FF457404FF45040082218609861FB
:1052200043F8702C30BD094B08221A60FAE700BF22
:105230003A000020E81F00210841084608410844C0
:1052400038000020044108440441084694400844C2
:10525000034B1A6802609B8883800020704700BF60
:105260003A000020084B094AD3F88831DB4303F4A5
:10527000FE1343F40053B3FA83F3C3F11303C3EBF8
:1052800043131370704700BF00400E4040000020E1
:10529000044B00281B780CBF042000201844C0B227
:1052A000704700BF40000020F8B50446C820FFF753
:1052B0007FFF414B414A1F78032F03D1FF24147015
:1052C0002046F8BD3E483F4B0168012F03EA010329
:1052D00012D1072C28BF0724012C3B4938BF0124D9
:1052E000042543EA04630D60A4B2E4B203602046DF
:1052F0001470FFF75DFFE3E743F47F5C4CF0080CAC
:10530000002F49D1042C95BF3D4601253B4604237F
:10531000E41A2E4B1B78E4B2A34228BF234603EBCA
:1053200085040BB1013BDBB21F26B3FBF6F6F1B2ED
:10533000C6EB461601F1010E9B1B4FF0FF31244EC8
:1053400001FA0EF11B06C94303F180733678C9B226
:1053500043EA0C0343EA813346B31E4EDFF888C0AC
:10536000B1FA81F1C1F11F01022F0CBF3746674628
:105370004E1C1BD0795C94B14E1EF6B2FD2E10D897
:10538000090641F00401144EC6F858114FF480018B
:1053900055B1124D2960A8E700252B46B8E7104902
:1053A000F1E74FF07F41EEE70E4DF3E7002C0C499B
:1053B00018BF4FF07F41E6E73A0000203900002097
:1053C000E81F00213F00C0E0584108444000002091
:1053D0009A1B0020B083E00F0040084008410846B7
:1053E0000400000B08410844B883E00F08B500F042
:1053F000F5FE0D4A68B1D2F8003123F47F115B0845
:1054000003F4FE130B43C2F800314FF00073D36175
:1054100008BDD2F8183123F47F115B0803F4FE13A2
:105420000B43C2F81831F0E7004008407047000015
:1054300008B500F0D3FE4FF4001330B1044A1360F6
:10544000044B4FF000621A6008BD034AF7E700BF43
:10545000004108442040084418410844014B1868A2
:10546000704700BF9C1B002070B505460E46C0B2B9
:1054700001F00F01FFF78CFEC6F303110446C5F3DC
:105480000720FFF785FEC6F303210444C5F3074058
:10549000FFF77EFE204470BD314B324A1B6803F497
:1054A000E07370B5002914BF0E460126B3F5C07F26
:1054B0002D4B16600CBF012200221A704CD090F8C0
:1054C0006430022B3FD1294B1B78002B14BFC8241A
:1054D00096240F212046FFF75BFEB6FA86F3B0FA5A
:1054E00080F29B1A002BC4BFC3F10F05D840204B9C
:1054F000D8BF0F2586424FEA0440C3F8BC0003F131
:10550000806303F1B80340F6FF7238BF05F1FF3541
:105510001A6003F1007329021960FFF7A5FF154E09
:10552000B08000F06BFCAC404FF4FA735C4341F682
:105530006A03B0FBF3F0104BB4FBF0F40A204443D1
:105540001C60B08870BD012B08D0084B1B78002B65
:1055500014BFF024B424BCE70024BAE73224B8E72F
:1055600018600840F81B0020981B00209A1B0020A0
:10557000006008403A0000209C1B0020FF280BD050
:105580000D4B0E4A1A600304000503F4E02300F0FB
:10559000F87018430A4B1860FF290BD0064B40F2F5
:1055A000F7121A600B0103F4F87301F007011943B5
:1055B000034B1960704700BF504108440000F701D9
:1055C0005041084608B500F0F9FD092810D8094BEC
:1055D00001281B5C05D1084B1B78012B14BF042349
:1055E000442303F00F011809BDE80840FFF7C6BFC8
:1055F000FA23F6E7E48C00003A00002070B5374C3F
:10560000374D064600F0C8FB002323603278354B47
:10561000022AD3F888312DD113F4001F39D1336811
:105620002B60B388AB800020FFF73EFE23682A780A
:1056300023F08043022A23F0170331D12A4A4FF482
:10564000EE41116002F100724FF48A41116043F0A3
:105650008043012142F8041C23600020FFF724FE50
:10566000224B03221A60FFF7ADFF214B01221A7073
:10567000002014E0012A02D113F4400FCEE742B912
:105680001C4A526AD24302F0010203F4800313431E
:10569000C4E703232B70184BFF221A70012070BD42
:1056A000012A16481649174A4FF0070509D1056027
:1056B000062008601449116043F003034FF4404191
:1056C000C8E7056005200860C02111600F4A43F05B
:1056D0008043812143F004031160BDE7E81F0021EE
:1056E0003A00002000400E4024410844584108443C
:1056F000991B0020B081E00F390000200C410844C4
:105700000C41084608410844C100400008410846D1
:105710002DE9F84F2F4F304B3B6000F06FFB4FF4FB
:10572000FA734FF47A76DFF8C880B0FBF6F56B4376
:105730004FEA032A4FEA136B1AEB08004FF00009F7
:105740004FF00003254A4BEB090102F04BF9A0F59D
:1057500080730446BB6218B92B21FEF769F8012457
:1057600006FB04F2002756084FEA0528B8193B4605
:1057700048F1000102F036F9194B1960194B4FEA54
:10578000046881468A461860240A25B928462B21D8
:10579000FEF74EF801254FF47A73A8FB036703FB6D
:1057A00004776C08301947F100012A46002302F003
:1057B00019F90D4B074A19600C4B19F102061860D4
:1057C0004AF10007B30843EA8773013B1363BDE85E
:1057D000F88F00BF005008400011010040420F0048
:1057E000AC1B0020A81B0020A41B0020A01B002035
:1057F00020A10700044B4FF00052C3F880211A602B
:10580000024B01225A60704700E100E0005008405E
:1058100082B013B502AC04E906000699019C009A17
:1058200005938C42A3EB0203A1EB040204D90749C0
:10583000096B01310A44013B03F00303C0E9003264
:1058400002B0BDE8104002B0704700BF00500840F1
:10585000054B0201134401221A604FF4807303FACE
:1058600000F0024B58667047005108440050084051
:105870001030034B0001185800F00100704700BFC2
:1058800000500840103001F460010001024B41F06B
:1058900003011950704700BF00500840014B024AF5
:1058A000DA667047005008400000010170B50546F7
:1058B000FBF76EFC084A094B9E691478084A126887
:1058C000E4B20AB19E69013404F00304FBF796FCCC
:1058D000C5E90046284670BDB01B002000500840B6
:1058E000880B0A4308B5222000F0BCF9024B4FF4A4
:1058F00080225A6008BD00BF0050084013B502ABBB
:1059000003E90300084B01991868009B484300EB2A
:105910008370064B1C684FF000420023E1FB042318
:10592000184402B010BD00BFA41B0020A01B002023
:1059300013B56C462046FFF7B9FF94E8030002B0A8
:10594000BDE81040FFF7DABF1FB5044602A8FFF715
:10595000ADFFDDE90232944288BF03F1FF3303F06B
:105960000303CDE900346B4693E8030004B0BDE8BF
:105970001040FFF7C3BF00002DE9F0410B4C266B30
:105980000B4C276821F040434FF000440025E3FB17
:105990000745084C2468890F04FB03530160B34298
:1059A00094BF43604660BDE8F08100BF00500840EE
:1059B000A81B0020AC1B00202DE9F04F8BB0154632
:1059C00006468A46FBF7B0FB07463046FFF740FF26
:1059D000022D04D13846FBF7DFFB012017E00DF163
:1059E00010084046FFF762FF98E80300FFF786FFC4
:1059F000012D04BF0AF1010300EB030AA0EB0A002A
:105A0000B0F1804F06D23846FBF7C6FB00200BB042
:105A1000BDE8F08F4949DFF838C10C6FC96EDDF879
:105A200014B006F1090224F0E00401EA0C0C1002A3
:105A3000E404120621F0E00142F4803240F001005B
:105A4000E40CC90484420CBF04240024C90C94450E
:105A500008BF44F00204884208BF44F0010414F077
:105A6000010318BF364A0393514606A818BFC2F86F
:105A700000A0FFF781FF022E08BF324A079B08BF34
:105A8000C2F800A0009398E80600069BDDF81C9081
:105A900008A8FFF7BDFE9DF820302B498B557BB140
:105AA000039B1BB1294B41F61F721A60A30742BF2B
:105AB000264B274A1A60600742BF204B00221A6714
:105AC0001E4B03EB06121120C2F80C9106F11002D6
:105AD0001201A9EB0B0998509A69D86DA2EB0B0B38
